{
  "transactions": [
    {
      "hash": "0x6215e3ca30631647cfa51aa729eb727cdfce63d34f0a6fca1edd959d89456565",
      "transactionType": "CALL",
      "contractName": null,
      "contractAddress": "0xfea570e8b3dc854f02894b9489c6bddf9a9e3f0b",
      "function": "mintStarterPack(address)",
      "arguments": [
        "0x917EA4491C10d9d55398aBFc93B89d171C95f253"
      ],
      "transaction": {
        "from": "0x917ea4491c10d9d55398abfc93b89d171c95f253",
        "to": "0xfea570e8b3dc854f02894b9489c6bddf9a9e3f0b",
        "gas": "0x2bcf4",
        "value": "0x0",
        "input": "0x1e0356bd000000000000000000000000917ea4491c10d9d55398abfc93b89d171c95f253",
        "nonce": "0x2",
        "chainId": "0x9d1b17959ed08"
      },
      "additionalContracts": [],
      "isFixedGasLimit": false
    }
  ],
  "receipts": [
    {
      "status": "0x1",
      "cumulativeGasUsed": "0x1df49",
      "logs": [
        {
          "address": "0xfea570e8b3dc854f02894b9489c6bddf9a9e3f0b",
          "topics": [
            "0x4a39dc06d4c0dbc64b70af90fd698a233a518aa5d07e595d983b8c0526c8f7fb",
            "0x000000000000000000000000917ea4491c10d9d55398abfc93b89d171c95f253",
            "0x0000000000000000000000000000000000000000000000000000000000000000",
            "0x000000000000000000000000917ea4491c10d9d55398abfc93b89d171c95f253"
          ],
          "data": "0x000000000000000000000000000000000000000000000000000000000000004000000000000000000000000000000000000000000000000000000000000000e00000000000000000000000000000000000000000000000000000000000000004000000000000000000000000000000000000000000000000000000000000000100000000000000000000000000000000000000000000000000000000000000020000000000000000000000000000000000000000000000000000000000000003000000000000000000000000000000000000000000000000000000000000000400000000000000000000000000000000000000000000000000000000000000040000000000000000000000000000000000000000000000000000000000000064000000000000000000000000000000000000000000000000000000000000006400000000000000000000000000000000000000000000000000000000000000640000000000000000000000000000000000000000000000000000000000000064",
          "blockHash": "0x9598b393c764cfcc05426cf0fa7a73ddfbe63e94bb10d13d5ab392a523e26650",
          "blockNumber": "0x360",
          "transactionHash": "0x6215e3ca30631647cfa51aa729eb727cdfce63d34f0a6fca1edd959d89456565",
          "transactionIndex": "0x0",
          "logIndex": "0x0",
          "removed": false
        },
        {
          "address": "0xfea570e8b3dc854f02894b9489c6bddf9a9e3f0b",
          "topics": [
            "0x9e9fe95dce43b01edb1cd13f818280c27af0da60df1b255e4db4cb28e3eb5329",
            "0x000000000000000000000000917ea4491c10d9d55398abfc93b89d171c95f253"
          ],
          "data": "0x",
          "blockHash": "0x9598b393c764cfcc05426cf0fa7a73ddfbe63e94bb10d13d5ab392a523e26650",
          "blockNumber": "0x360",
          "transactionHash": "0x6215e3ca30631647cfa51aa729eb727cdfce63d34f0a6fca1edd959d89456565",
          "transactionIndex": "0x0",
          "logIndex": "0x1",
          "removed": false
        }
      ],
      "logsBloom": "0x00000000000400000000010200000000000000000002000000000000000000000000000000000000000000000000000000000000000000000000000000000000000000000000000000000000000000000000000000000000000000000000000000000000020000000000000000000800000000000800000000000000000000000000000000000000000000000000000000804000000000000000000000000000000000000000000000000000000000000000000000000000010000000000000000000000000000000002000000000000000400000000000000800000000020000000000000000000000000000000000000000000000000000000000002000000",
      "type": "0x2",
      "transactionHash": "0x6215e3ca30631647cfa51aa729eb727cdfce63d34f0a6fca1edd959d89456565",
      "transactionIndex": "0x0",
      "blockHash": "0x9598b393c764cfcc05426cf0fa7a73ddfbe63e94bb10d13d5ab392a523e26650",
      "blockNumber": "0x360",
      "gasUsed": "0x1df49",
      "effectiveGasPrice": "0x8",
      "from": "0x917ea4491c10d9d55398abfc93b89d171c95f253",
      "to": "0xfea570e8b3dc854f02894b9489c6bddf9a9e3f0b",
      "contractAddress": null
    }
  ],
  "libraries": [],
  "pending": [],
  "returns": {},
  "timestamp": 1763839775782,
  "chain": 2763834965749000,
  "commit": "e8e0dff"
}